:100000000C942A000C94CC140C949E150C94351668
:100010000C9447000C9447000C9447000C949911E1
:100020000C9447000C9466110C94EF0E0C94BC0ECB
:100030000C9447000C9447000C9447000C94470024
:100040000C9447000C9447000C9447000C94470014
:100050000C94470011241FBECFE5D8E0DEBFCDBF12
:1000600011E0A0E6B0E0EEEDF1E602C005900D92E1
:10007000AA3EB107D9F712E0AAEEB1E001C01D9285
:10008000A730B107E1F70E948C080C94ED300C9476
:100090000000EF92FF920F931F937B018C0120E0F1
:1000A00030E040E05FE40E94250488238CF0C80122
:1000B000B70120E030E040E05FE40E94C1010E940F
:1000C00085049B01AC01205030404040504806C0A0
:1000D000C801B7010E9485049B01AC01B901CA01A6
:1000E0001F910F91FF90EF900895A0E0B0E0EBE733
:1000F000F0E00C94E42DDC012B01FA019C9192308C
:1001000008F439C1EB018881823008F433C194309E
:1001100069F4843009F02FC111969C91119789815F
:10012000981709F428C1A8EAB0E025C1843009F481
:1001300021C18230A9F4923009F01DC19A01AD01AC
:1001400088E0EA010990AE01E90109929E0181501F
:10015000C1F7E201898111969C918923818308C1AD
:10016000923009F407C112962D903C901397EB0141
:100170008A819B811496AD90BD90CD90DC901797AD
:10018000EC80FD800E811F819101281B390BB90184
:1001900037FF04C066277727621B730B6032710537
:1001A0000CF061C0121613066CF537014801062EDB
:1001B00004C096948794779467940A94D2F721E0C8
:1001C00030E040E050E004C0220F331F441F551FB1
:1001D0006A95D2F721503040404050402E213F21B7
:1001E00040235123211531054105510521F021E01E
:1001F00030E040E050E079018A01E628F72808293C
:1002000019293CC0232BD1F1260E371E350146019A
:10021000062E04C096948794779467940A94D2F734
:1002200021E030E040E050E004C0220F331F441FC3
:10023000551F6A95D2F721503040404050402A2146
:100240003B214C215D21211531054105510521F04E
:1002500021E030E040E050E059016A01A628B728CB
:10026000C828D9280BC0821593052CF01C01AA249C
:10027000BB24650103C0EE24FF24870111969C91E5
:10028000D20111968C91981709F445C0992339F041
:10029000A80197012A193B094C095D0906C0A6016E
:1002A00095012E193F09400B510B57FD08C01182D3
:1002B0003382228224833583468357831DC081E0A5
:1002C00081833382228288279927DC01821B930B4A
:1002D000A40BB50B84839583A683B7830DC0220F2F
:1002E000331F441F551F24833583468357838281E0
:1002F000938101979383828324813581468157813D
:10030000DA01C9010197A109B1098F5F9F4FAF4F72
:10031000BF4328F30BC0918333822282EA0CFB1C7B
:100320000C1D1D1DE482F5820683178383E0808304
:10033000248135814681578157FF1AC0C901AA27F8
:1003400097FDA095BA2F81709070A070B0705695EF
:10035000479537952795822B932BA42BB52B848318
:100360009583A683B7838281938101969383828349
:10037000DF0101C0D201CD01CDB7DEB7E2E10C94BF
:10038000002EA0E2B0E0E7ECF1E00C94F02D6983E0
:100390007A838B839C832D833E834F835887E9E048
:1003A000EE2EF12CEC0EFD1ECE010196B7010E943F
:1003B00076068E010F5E1F4FCE010596B8010E9492
:1003C00076068A8991E089278A8BC701B801AE0138
:1003D000475E5F4F0E9475000E94A105A096E6E06F
:1003E0000C940C2EA0E2B0E0E8EFF1E00C94F02DBC
:1003F00069837A838B839C832D833E834F835887C5
:10040000F9E0EF2EF12CEC0EFD1ECE010196B701A6
:100410000E9476068E010F5E1F4FCE010596B80131
:100420000E947606C701B801AE01475E5F4F0E9489
:1004300075000E94A105A096E6E00C940C2EA0E2A7
:10044000B0E0E5E2F2E00C94E42D69837A838B83DB
:100450009C832D833E834F835887CE010196BE0136
:10046000675F7F4F0E947606CE010596BE016F5EE4
:100470007F4F0E9476069985923088F08989823074
:10048000C8F0943019F4823051F404C0843029F457
:10049000923081F488EA90E0C6C0923049F420E0BE
:1004A0009A858A89981321E02A87CE010996BBC0D4
:1004B000823049F420E09A858A89981321E02A8BBA
:1004C000CE014196B0C02D843E844F8458886D88FB
:1004D0007E888F88988CEE24FF248701AA24BB2471
:1004E000650140E050E060E070E0E0E0F0E0C10174
:1004F00081709070892BE9F0E60CF71C081D191D1E
:100500009A01AB012A0D3B1D4C1D5D1D80E090E062
:10051000A0E0B0E0E614F7040805190520F481E036
:1005200090E0A0E0B0E0BA01A901480F591F6A1F8E
:100530007B1FAA0CBB1CCC1CDD1C97FE08C081E0F5
:1005400090E0A0E0B0E0A82AB92ACA2ADB2A3196B6
:10055000E032F10549F0660C771C881C991C569412
:10056000479437942794C3CFFA85EA892B893C892D
:100570008B859C85280F391F2E5F3F4F17C0CA01FE
:1005800081709070892B61F016950795F794E79428
:1005900080E090E0A0E0B0E8E82AF92A0A2B1B2BC3
:1005A00076956795579547952F5F3F4F77FDE7CF36
:1005B0000CC0440F551F661F771F17FD4160EE0CDE
:1005C000FF1C001F111F21503040403090E05907A0
:1005D00090E0690790E4790760F32B8F3C8FDB0193
:1005E000CA018F779070A070B07080349105A1051A
:1005F000B10561F447FD0AC0E114F10401051105DC
:1006000029F0405C5F4F6F4F7F4F40781A8EFE1786
:1006100011F081E08A8F4D8F5E8F6F8F78A383E01A
:10062000898FCE0149960E94A105A096E2E10C9423
:10063000002EA8E1B0E0EFE1F3E00C94EC2D69832B
:100640007A838B839C832D833E834F835887B9E0C5
:10065000EB2EF12CEC0EFD1ECE010196B7010E948F
:1006600076068E010F5E1F4FCE010596B8010E94DF
:1006700076062985223008F47EC03989323010F49C
:10068000B8017CC08A859A8989278A87243011F02D
:10069000223031F4231709F06EC068EA70E06EC0B2
:1006A000343039F41D861E861F86188A1C861B86E8
:1006B00004C0323021F484E08987B7015FC02B8504
:1006C0003C858B899C89281B390B3C872B87ED84C3
:1006D000FE840F851889AD88BE88CF88D88CEA142F
:1006E000FB040C051D0540F4EE0CFF1C001F111F40
:1006F000215030403C872B8720E030E040E050E044
:1007000080E090E0A0E0B0E460E070E0EA14FB0478
:100710000C051D0540F0282B392B4A2B5B2BEA18C2
:10072000FB080C091D09B695A79597958795EE0CC2
:10073000FF1C001F111F6F5F7F4F6F31710531F775
:10074000DA01C9018F779070A070B0708034910584
:10075000A105B10561F427FD0AC0E114F10401050A
:10076000110529F0205C3F4F4F4F5F4F20782D87B8
:100770003E874F87588BBE01675F7F4FCB010E943A
:10078000A1056896EAE00C94082EA8E1B0E0EBEC35
:10079000F3E00C94F02D69837A838B839C832D8303
:1007A0003E834F83588789E0E82EF12CEC0EFD1E26
:1007B000CE010196B7010E9476068E010F5E1F4F93
:1007C000CE010596B8010E9476068985823040F0F8
:1007D0008989823028F0C701B8010E94EE0601C065
:1007E00081E06896E6E00C940C2EA8E1B0E0EBEF17
:1007F000F3E00C94F02D69837A838B839C832D83A3
:100800003E834F83588789E0E82EF12CEC0EFD1EC5
:10081000CE010196B7010E9476068E010F5E1F4F32
:10082000CE010596B8010E9476068985823040F097
:100830008989823028F0C701B8010E94EE0601C004
:100840008FEF6896E6E00C940C2EA8E1B0E0EBE2A6
:10085000F4E00C94F02D69837A838B839C832D8341
:100860003E834F83588789E0E82EF12CEC0EFD1E65
:10087000CE010196B7010E9476068E010F5E1F4FD2
:10088000CE010596B8010E9476068985823040F037
:100890008989823028F0C701B8010E94EE0601C0A4
:1008A0008FEF6896E6E00C940C2EA8E1B0E0EBE543
:1008B000F4E00C94F02D69837A838B839C832D83E1
:1008C0003E834F83588789E0E82EF12CEC0EFD1E05
:1008D000CE010196B7010E9476068E010F5E1F4F72
:1008E000CE010596B8010E9476068985823040F0D7
:1008F0008989823028F0C701B8010E94EE0601C044
:1009000081E06896E6E00C940C2EACE0B0E0EBE8F9
:10091000F4E00C94F42D69837A838B839C83CE015D
:100920000196BE016B5F7F4F0E9476068D818230FB
:1009300061F1823050F1843021F48E81882351F1AD
:100940002EC02F81388537FD20C06E812F313105B3
:100950001CF06623F9F023C08EE190E0821B930B1C
:1009600029853A854B855C8504C056954795379512
:1009700027958A95D2F76623B1F05095409530952A
:1009800021953F4F4F4F5F4F0EC020E030E040E0D9
:1009900050E009C02FEF3FEF4FEF5FE704C020E0CA
:1009A00030E040E050E8B901CA012C96E2E00C9436
:1009B000102EA8E0B0E0EFEDF4E00C94EC2D7B01FC
:1009C0008C01611571058105910519F482E0898317
:1009D00060C083E089838EE1C82ED12CDC82CB827B
:1009E000ED82FE820F831887C801B7010E9452056D
:1009F000FC013197F7FF3BC0222733272E1B3F0B0B
:100A000057016801022E04C0D694C794B794A794E6
:100A10000A94D2F740E050E060E070E081E090E0BE
:100A2000A0E0B0E004C0880F991FAA1FBB1F2A9541
:100A3000D2F70197A109B1098E219F21A023B123EB
:100A40000097A105B10521F041E050E060E070E0C1
:100A50004A295B296C297D294D835E836F837887C2
:100A60008EE190E08E1B9F0B9C838B8312C030978E
:100A700081F00E2E04C0EE0CFF1C001F111F0A9403
:100A8000D2F7ED82FE820F831887CE1ADF0ADC824E
:100A9000CB821A82CE0101960E94A1052896EAE037
:100AA0000C94082EEF92FF920F931F937B018C0101
:100AB00080E0E81680E0F80681E0080780E018078B
:100AC00088F48FEFE816F1040105110531F028F0E4
:100AD00088E090E0A0E0B0E017C080E090E0A0E007
:100AE000B0E012C080E0E81680E0F80680E0080779
:100AF00081E0180728F088E190E0A0E0B0E004C0B1
:100B000080E190E0A0E0B0E020E230E040E050E0A2
:100B1000281B390B4A0B5B0B04C016950795F794FD
:100B2000E7948A95D2F7F701E055FF4F8081281BA3
:100B3000310941095109C9011F910F91FF90EF90AF
:100B40000895DF92EF92FF920F931F93FC01E480D0
:100B5000F58006811781D1808081823048F480E061
:100B600090E0A0E1B0E0E82AF92A0A2B1B2BA5C0EF
:100B7000843009F49FC0823021F4EE24FF248701E1
:100B800005C0E114F1040105110519F4E0E0F0E0FD
:100B900096C0628173819FEF623879070CF05BC069
:100BA00022E83FEF261B370B2A3131052CF020E0DD
:100BB00030E040E050E02AC0B801A701022E04C096
:100BC00076956795579547950A94D2F781E090E01E
:100BD000A0E0B0E004C0880F991FAA1FBB1F2A9590
:100BE000D2F70197A109B1098E219F21A023B1233A
:100BF0000097A105B10521F081E090E0A0E0B0E010
:100C00009A01AB01282B392B4A2B5B2BDA01C90146
:100C10008F779070A070B07080349105A105B105F8
:100C200039F427FF09C0205C3F4F4F4F5F4F04C08E
:100C3000215C3F4F4F4F5F4FE0E0F0E02030A0E0FD
:100C40003A07A0E04A07A0E45A0710F0E1E0F0E01C
:100C500079018A0127C06038710564F5FB01E1580C
:100C6000FF4FD801C7018F779070A070B0708034AB
:100C70009105A105B10539F4E7FE0DC080E490E0CF
:100C8000A0E0B0E004C08FE390E0A0E0B0E0E80EA8
:100C9000F91E0A1F1B1F17FF05C016950795F7942D
:100CA000E794319687E016950795F794E7948A952F
:100CB000D1F705C0EE24FF248701EFEFF0E06E2F9F
:100CC000679566276795902F9F77D794DD24D794F3
:100CD0008E2F8695492F462B582F5D29B701CA01C3
:100CE0001F910F91FF90EF90DF900895FC01DB01C1
:100CF000408151812281622F6F7770E0221F22276D
:100D0000221F9381892F880F822B282F30E0991F73
:100D10009927991F11969C93119721153105A9F5D3
:100D2000411551056105710511F482E037C082E873
:100D30009FEF13969C938E9312979A01AB0167E0F5
:100D4000220F331F441F551F6A95D1F783E08C9300
:100D50000DC0220F331F441F551F12968D919C9179
:100D60001397019713969C938E931297203080E0EF
:100D7000380780E0480780E4580758F314962D930D
:100D80003D934D935C93179708952F3F310579F468
:100D9000411551056105710519F484E08C9308959E
:100DA00064FF03C081E08C9312C01C9210C02F57C7
:100DB000304013963C932E93129783E08C9387E0F8
:100DC000440F551F661F771F8A95D1F770641496DC
:100DD0004D935D936D937C93179708951F93DC015A
:100DE000FB019C91923008F447C08081823008F466
:100DF00043C0943051F411961C91843099F581814F
:100E0000682F70E0611B71093FC0843021F092307F
:100E100031F48230B9F18181882389F12DC0119696
:100E20001C9111978230F1F081811817D9F4129634
:100E30002D913C911397828193818217930794F0AF
:100E400028173907BCF014968D919D910D90BC9197
:100E5000A02D2481358146815781281739074A07FB
:100E60005B0718F4112341F00AC082179307A40707
:100E7000B50740F4112319F061E070E005C06FEF91
:100E80007FEF02C060E070E0CB011F910895DF9317
:100E9000CF93CDB7DEB72E970FB6F894DEBF0FBE57
:100EA000CDBF81E08093F0010E94DB2A81E061E008
:100EB00040E00E9404170E94E52780E690E00E942F
:100EC000402780E090E0A6E9B3E48B879C87AD875C
:100ED000BE876B857C858D859E8520E030E04AEF5E
:100EE00054E40E941F02DC01CB018F839887A987FD
:100EF000BA876F81788589859A8520E030E040E85F
:100F00005FE30E94550488232CF481E090E09E83E7
:100F10008D833FC06F81788589859A8520E03FEF7A
:100F20004FE757E40E94F50318164CF56B857C8556
:100F30008D859E8520E030E040E251E40E941F0252
:100F4000DC01CB01BC01CD010E944900DC01CB01D9
:100F50009E838D830FC088EC90E09C838B838B8174
:100F60009C810197F1F79C838B838D819E810197F2
:100F70009E838D838D819E81009769F714C06F8158
:100F8000788589859A850E944900DC01CB019E8382
:100F90008D838D819E819A83898389819A8101972E
:100FA000F1F79A8389832E960FB6F894DEBF0FBEB1
:100FB000CDBFCF91DF910895DF93CF93CDB7DEB74B
:100FC0002E970FB6F894DEBF0FBECDBF1092F00182
:100FD0000E948F2A0E94E5278EE690E00E9440271B
:100FE00081E061E041E00E94041781E065E040E0BB
:100FF0000E94041780E090E0AAE7B4E48B879C8706
:10100000AD87BE876B857C858D859E8520E030E031
:101010004AEF54E40E941F02DC01CB018F839887C2
:10102000A987BA876F81788589859A8520E030E025
:1010300040E85FE30E94550488232CF481E090E0AF
:101040009E838D833FC06F81788589859A8520E056
:101050003FEF4FE757E40E94F50318164CF56B85F8
:101060007C858D859E8520E030E040E251E40E9441
:101070001F02DC01CB01BC01CD010E944900DC0153
:10108000CB019E838D830FC088EC90E09C838B8383
:101090008B819C810197F1F79C838B838D819E814D
:1010A00001979E838D838D819E81009769F714C07F
:1010B0006F81788589859A850E944900DC01CB0182
:1010C0009E838D838D819E819A83898389819A8174
:1010D0000197F1F79A8389832E960FB6F894DEBFB5
:1010E0000FBECDBFCF91DF910895DF93CF93CDB7E2
:1010F000DEB70E94DB2A0E94E5278DE790E00E9480
:10110000402781E065E041E00E94041781E061E052
:1011100040E00E940417FFCFDF93CF93CDB7DEB737
:10112000C254D0400FB6F894DEBF0FBECDBF81E0F1
:1011300061E041E00E94841681E065E041E00E94A8
:10114000841681E061E040E00E94041781E065E0E0
:1011500040E00E9404170E94D41E0E94812A0E942F
:10116000012BCE018C969FAF8EAFECECF1E0229676
:10117000FFAFEEAF2297F6E02396FFAF23972296BC
:10118000EEADFFAD2297008022968EAD9FAD2297E7
:10119000019622969FAF8EAF2297EEADFFAD0082F3
:1011A0008EAD9FAD01969FAF8EAF23969FAD2397D7
:1011B000915023969FAF23972396EFAD2397EE236D
:1011C000F1F6CE018C960E94C71981E00E940314AB
:1011D00081E062E00E942D1481E062E00E94FF1431
:1011E00081E062E00E94D11587E497E00E94B61486
:1011F0008CED97E00E94881585E798E00E941F1605
:1012000083E062E040E00E94841683E063E040E017
:101210000E94841681E062E040E00E94841683E030
:1012200062E041E00E94041783E063E041E00E9435
:10123000041781E062E041E00E9404170E94602DE3
:101240000E94E5278CE890E00E94402780E090E033
:10125000AAE7B4E48FA398A7A9A7BAA76FA178A516
:1012600089A59AA520E030E04AEF54E40E941F02CD
:10127000DC01CB018BA39CA3ADA3BEA36BA17CA17E
:101280008DA19EA120E030E040E85FE30E9455047C
:1012900088232CF481E090E09AA389A33FC06BA13E
:1012A0007CA18DA19EA120E03FEF4FE757E40E9473
:1012B000F50318164CF56FA178A589A59AA520E02D
:1012C00030E040E251E40E941F02DC01CB01BC018E
:1012D000CD010E944900DC01CB019AA389A30FC074
:1012E00088EC90E098A38F8F8F8D98A10197F1F7EC
:1012F00098A38F8F89A19AA101979AA389A389A105
:101300009AA1009769F714C06BA17CA18DA19EA141
:101310000E944900DC01CB019AA389A389A19AA16B
:101320009E8F8D8F8D8D9E8D0197F1F79E8F8D8F66
:101330000E948F2A0E94E5278EE690E00E944027B7
:1013400081E061E041E00E94041780E090E0AAE7BC
:10135000B4E4898F9A8FAB8FBC8F698D7A8D8B8D1A
:101360009C8D20E030E04AEF54E40E941F02DC0133
:10137000CB018D8B9E8BAF8BB88F6D897E898F89CA
:10138000988D20E030E040E85FE30E945504882318
:101390002CF481E090E09C8B8B8B3FC06D897E8923
:1013A0008F89988D20E03FEF4FE757E40E94F503C7
:1013B00018164CF5698D7A8D8B8D9C8D20E030E070
:1013C00040E251E40E941F02DC01CB01BC01CD01CF
:1013D0000E944900DC01CB019C8B8B8B0FC088ECF9
:1013E00090E09A8B898B89899A890197F1F79A8B7A
:1013F000898B8B899C8901979C8B8B8B8B899C8992
:10140000009769F714C06D897E898F89988D0E9435
:101410004900DC01CB019C8B8B8B8B899C89988B41
:101420008F878F8598890197F1F7988B8F878091A7
:10143000F0018823E1F7CE01C2969E012A5C3F4F5E
:10144000AE01465C5F4FB9010E949B2C8BA78BA518
:10145000882351F48091EA019091EB0101969093D9
:10146000EB018093EA0119C08BA5813051F4809182
:10147000EE019091EF0101969093EF018093EE01C0
:101480000CC08BA5823049F48091EC019091ED0164
:1014900001969093ED018093EC010E94E52780E096
:1014A00060E00E9416278BE990E00E94402780911F
:1014B000EA019091EB010E9482278EE990E00E9460
:1014C00040278091EC019091ED010E94822781E0FC
:1014D00060E00E94162782EA90E00E9440278091F7
:1014E000EE019091EF010E94822780E090E0AAEF48
:1014F000B3E48B879C87AD87BE876B857C858D85A4
:101500009E8520E030E04AEF54E40E941F02DC0197
:10151000CB018F839887A987BA876F817885898562
:101520009A8520E030E040E85FE30E94550488237C
:101530002CF481E090E09E838D833FC06F8178859D
:1015400089859A8520E03FEF4FE757E40E94F50335
:1015500018164CF56B857C858D859E8520E030E0E6
:1015600040E251E40E941F02DC01CB01BC01CD012D
:101570000E944900DC01CB019E838D830FC088EC63
:1015800090E09C838B838B819C810197F1F79C83F6
:101590008B838D819E8101979E838D838D819E811A
:1015A000009769F744CF6F81788589859A850E9475
:1015B0004900DC01CB019E838D838D819E819A83BE
:1015C000898389819A810197F1F79A8389832FCF43
:1015D000DF93CF93CDB7DEB729970FB6F894DEBF70
:1015E0000FBECDBF9B838A83AAE2B0E0EAE2F0E0BF
:1015F000808180618C93AAE2B0E0EAE2F0E0808131
:1016000088608C9380E88983EA81FB818481282F1C
:1016100030E03987288788859985009749F0E885E3
:10162000F985E130F10539F489818F7B898303C025
:10163000898180648983EA81FB818581282F30E05C
:101640003F832E838E819F818130910589F0EE81C9
:10165000FF81E230F10599F02E813F81211531059E
:10166000A1F489818F7E898389818F7D89830DC0D3
:1016700089818F7E898389818062898306C089817F
:1016800080618983898180628983EA81FB81868187
:10169000E82FF0E0FD83EC832C813D81211531059D
:1016A00031F08C819D818130910529F007C08981BD
:1016B000877F898303C0898188608983898182606B
:1016C000898389818460898389818B7F8983E0E430
:1016D000F0E08981808329E230E0EA81FB8180812A
:1016E0009181A281B381F901808320E430E0EA8115
:1016F000FB8180819181A281B381892F9A2FAB2FA9
:10170000BB27F901808329960FB6F894DEBF0FBE80
:10171000CDBFCF91DF910895DF93CF9300D00F928B
:10172000CDB7DEB79A838983EBE2F0E0808188232E
:10173000DCF7ECE2F0E08081E981FA818083898145
:101740009A81009719F081E08B8301C01B828B8105
:101750000F900F900F90CF91DF910895DF93CF936B
:101760000F92CDB7DEB78983EBE2F0E08081882F5E
:1017700090E0807290700097B9F3ECE2F0E089811C
:1017800080830F90CF91DF910895DF93CF9300D0A6
:1017900000D0CDB7DEB79C838B8319820DC08981C1
:1017A000282F30E08B819C81FC01E20FF31F8A819E
:1017B000808389818F5F8983CE0102960E948C0B82
:1017C000833269F78981282F30E08B819C81FC016D
:1017D000E20FF31F10820F900F900F900F90CF9198
:1017E000DF910895DF93CF9300D00F92CDB7DEB78E
:1017F0009B838A8319820EC08981282F30E08A81D9
:101800009B81FC01E20FF31F80810E94AE0B898156
:101810008F5F89838981282F30E08A819B81FC0139
:10182000E20FF31F8081882339F70F900F900F90FC
:10183000CF91DF910895DF93CF930F92CDB7DEB7AD
:101840008983E2E5F0E01082A3E5B0E0E3E5F0E0B3
:10185000808180688C93A3E5B0E0E3E5F0E08081CF
:10186000877F8C93A3E5B0E0E3E5F0E080818F7B98
:101870008C9389810E94FF0DA9E5B0E0E9E5F0E0D5
:10188000808181608C9381E00E9403140F90CF913E
:10189000DF910895DF93CF9300D000D00F92CDB7A2
:1018A000DEB789836A834B83E2E5F0E01082ECE5E2
:1018B000F0E08B818083A3E5B0E0E3E5F0E0808198
:1018C00080688C93A3E5B0E0E3E5F0E08081886078
:1018D0008C93A3E5B0E0E3E5F0E080818F7B8C930F
:1018E0008981282F30E03D832C838C819D8181303C
:1018F000910521F12C813D81223031052CF48C8120
:101900009D81009761F046C02C813D8122303105D8
:1019100021F18C819D818330910571F13BC0A3E55C
:10192000B0E0E3E5F0E080818F7D8C93A3E5B0E04B
:10193000E3E5F0E080818F7E8C932CC0A3E5B0E0DE
:10194000E3E5F0E080818F7D8C93A3E5B0E0E3E5F3
:10195000F0E0808180618C931DC0A3E5B0E0E3E5F9
:10196000F0E0808180628C93A3E5B0E0E3E5F0E0F5
:1019700080818F7E8C930EC0A3E5B0E0E3E5F0E0BC
:10198000808180628C93A3E5B0E0E3E5F0E08081A4
:1019900080618C938A810E94FF0DA9E5B0E0E9E5A2
:1019A000F0E0808182608C9381E00E9403140F90AC
:1019B0000F900F900F900F90CF91DF910895DF93CC
:1019C000CF9300D000D0CDB7DEB789836A83E2E53C
:1019D000F0E01082ECE5F0E01082A3E5B0E0E3E592
:1019E000F0E080818F778C93A3E5B0E0E3E5F0E051
:1019F000808188608C93A3E5B0E0E3E5F0E080812E
:101A000080648C938981282F30E03C832B838B81E9
:101A10009C8181309105C1F02B813C8122303105C0
:101A200011F18B819C81009761F5A3E5B0E0E3E5BE
:101A3000F0E080818F7D8C93A3E5B0E0E3E5F0E0FA
:101A400080818F7E8C931DC0A3E5B0E0E3E5F0E0DC
:101A5000808180628C93A3E5B0E0E3E5F0E08081D3
:101A60008F7E8C930EC0A3E5B0E0E3E5F0E08081CB
:101A700080628C93A3E5B0E0E3E5F0E080818061D3
:101A80008C938A810E94FF0D0F900F900F900F9002
:101A9000CF91DF910895DF93CF930F92CDB7DEB74B
:101AA0008983ECE5F0E0898180830F90CF91DF910D
:101AB0000895DF93CF9300D000D0CDB7DEB78983F0
:101AC0006A83E2E5F0E01082ECE5F0E01082A3E545
:101AD000B0E0E3E5F0E080818F778C93A3E5B0E0A0
:101AE000E3E5F0E08081877F8C93A3E5B0E0E3E558
:101AF000F0E0808180648C938981282F30E03C83E2
:101B00002B838B819C8181309105C1F02B813C819D
:101B10002230310511F18B819C81009761F5A3E59D
:101B2000B0E0E3E5F0E080818F7D8C93A3E5B0E049
:101B3000E3E5F0E080818F7E8C931DC0A3E5B0E0EB
:101B4000E3E5F0E0808180628C93A3E5B0E0E3E51B
:101B5000F0E080818F7E8C930EC0A3E5B0E0E3E5DA
:101B6000F0E0808180628C93A3E5B0E0E3E5F0E0F3
:101B7000808180618C938A810E94FF0D0F900F906D
:101B80000F900F90CF91DF910895DF93CF930F9235
:101B9000CDB7DEB78983ECE5F0E0898180830F90D3
:101BA000CF91DF910895DF93CF9300D0CDB7DEB70B
:101BB0009A83898389819A81009731F089819A81FA
:101BC0009093F2018093F1010F900F90CF91DF91EC
:101BD0000895DF93CF9300D0CDB7DEB79A83898382
:101BE00089819A81009731F089819A819093F401DB
:101BF0008093F3010F900F90CF91DF910895DF93C1
:101C0000CF9300D00F92CDB7DEB789838981282F7B
:101C100030E03B832A838A819B818230910509F4DD
:101C20004EC02A813B812330310554F48A819B8147
:101C30000097C9F02A813B812130310551F196C0CE
:101C40008A819B818430910509F465C02A813B819A
:101C5000243031050CF449C08A819B81853091057F
:101C600009F46FC083C0A3E5B0E0E3E5F0E0808154
:101C70008B7F8C93A3E5B0E0E3E5F0E080818D7F7E
:101C80008C93A3E5B0E0E3E5F0E080818E7F8C9358
:101C90006DC0A3E5B0E0E3E5F0E080818B7F8C933D
:101CA000A3E5B0E0E3E5F0E080818D7F8C93A3E5D0
:101CB000B0E0E3E5F0E0808181608C9357C0A3E55C
:101CC000B0E0E3E5F0E080818B7F8C93A3E5B0E0AA
:101CD000E3E5F0E0808182608C93A3E5B0E0E3E58A
:101CE000F0E080818E7F8C9341C0A3E5B0E0E3E516
:101CF000F0E080818B7F8C93A3E5B0E0E3E5F0E03A
:101D0000808182608C93A3E5B0E0E3E5F0E0808120
:101D100081608C932BC0A3E5B0E0E3E5F0E0808127
:101D200084608C93A3E5B0E0E3E5F0E080818D7FF3
:101D30008C93A3E5B0E0E3E5F0E080818E7F8C93A7
:101D400015C0A3E5B0E0E3E5F0E0808184608C930A
:101D5000A3E5B0E0E3E5F0E080818D7F8C93A3E51F
:101D6000B0E0E3E5F0E0808181608C930F900F900C
:101D70000F90CF91DF9108951F920F920FB60F929F
:101D800011242F933F934F935F936F937F938F9380
:101D90009F93AF93BF93EF93FF93DF93CF93CDB711
:101DA000DEB78091F1019091F201009729F0E09166
:101DB000F101F091F2010995CF91DF91FF91EF913F
:101DC000BF91AF919F918F917F916F915F914F9153
:101DD0003F912F910F900FBE0F901F9018951F925B
:101DE0000F920FB60F9211242F933F934F935F934F
:101DF0006F937F938F939F93AF93BF93EF93FF93D3
:101E0000DF93CF93CDB7DEB78091F3019091F401CA
:101E1000009729F0E091F301F091F4010995CF9139
:101E2000DF91FF91EF91BF91AF919F918F917F9142
:101E30006F915F914F913F912F910F900FBE0F9037
:101E40001F901895DF93CF930F92CDB7DEB789839C
:101E5000ECE4F0E011821082EFE4F0E01082AEE4F6
:101E6000B0E0EEE4F0E08081877F8C93AEE4B0E0F8
:101E7000EEE4F0E080818F7E8C9389810E94A9102E
:101E8000A9E5B0E0E9E5F0E0808184608C9381E031
:101E90000E9403140F90CF91DF910895DF93CF93A9
:101EA00000D000D000D0CDB7DEB789836A835C83D1
:101EB0004B83ECE4F0E011821082EAE4F0E08B81E5
:101EC0009C8191838083AFE4B0E0EFE4F0E0808117
:101ED0008E7F8C93AFE4B0E0EFE4F0E080818D7F03
:101EE0008C93AEE4B0E0EEE4F0E0808188608C9307
:101EF000AEE4B0E0EEE4F0E080818F7E8C938981E7
:101F0000282F30E03E832D838D819E818130910585
:101F100021F12D813E81223031052CF48D819E816D
:101F2000009761F046C02D813E812230310521F1BC
:101F30008D819E818330910571F13BC0AFE4B0E0AB
:101F4000EFE4F0E080818F778C93AFE4B0E0EFE4D2
:101F5000F0E080818F7B8C932CC0AFE4B0E0EFE4A5
:101F6000F0E080818F778C93AFE4B0E0EFE4F0E0B5
:101F7000808180648C931DC0AFE4B0E0EFE4F0E0BA
:101F8000808180688C93AFE4B0E0EFE4F0E0808182
:101F90008F7B8C930EC0AFE4B0E0EFE4F0E0808183
:101FA00080688C93AFE4B0E0EFE4F0E0808180647F
:101FB0008C938A810E94A910A9E5B0E0E9E5F0E0E0
:101FC000808180618C9381E00E94031426960FB675
:101FD000F894DEBF0FBECDBFCF91DF910895DF93A0
:101FE000CF9300D000D000D0CDB7DEB789836A830D
:101FF0005C834B83ECE4F0E011821082E6E4F0E0D5
:102000008B819C8191838083AFE4B0E0EFE4F0E0CA
:1020100080818E7F8C93AFE4B0E0EFE4F0E08081CC
:1020200082608C93AEE4B0E0EEE4F0E08081886002
:102030008C93AEE4B0E0EEE4F0E0808180618C93BC
:102040008981282F30E03E832D838D819E818130D0
:10205000910531F02D813E812230310581F01DC086
:10206000AFE4B0E0EFE4F0E0808180688C93AFE40F
:10207000B0E0EFE4F0E080818F7B8C930EC0AFE4A2
:10208000B0E0EFE4F0E0808180688C93AFE4B0E0F2
:10209000EFE4F0E0808180648C938A810E94A91033
:1020A00026960FB6F894DEBF0FBECDBFCF91DF915D
:1020B0000895DF93CF9300D0CDB7DEB79A8389839D
:1020C000EAE4F0E089819A81918380830F900F90F8
:1020D000CF91DF910895DF93CF9300D0CDB7DEB7D6
:1020E0009A838983E8E4F0E089819A8191838083EF
:1020F0000F900F90CF91DF910895DF93CF9300D091
:10210000CDB7DEB79A83898389819A81009731F0B0
:1021100089819A819093F6018093F5010F900F9039
:10212000CF91DF910895DF93CF9300D0CDB7DEB785
:102130009A83898389819A81009731F089819A8174
:102140009093F8018093F7010F900F90CF91DF915A
:102150000895DF93CF9300D00F92CDB7DEB7898378
:102160008981282F30E03B832A838A819B818230BA
:10217000910509F44EC02A813B812330310554F486
:102180008A819B810097C9F02A813B8121303105EA
:1021900051F196C08A819B818430910509F465C014
:1021A0002A813B81243031050CF449C08A819B810E
:1021B0008530910509F46FC083C0AEE4B0E0EEE471
:1021C000F0E080818B7F8C93AEE4B0E0EEE4F0E051
:1021D00080818D7F8C93AEE4B0E0EEE4F0E080810E
:1021E0008E7F8C936DC0AEE4B0E0EEE4F0E08081D1
:1021F0008B7F8C93AEE4B0E0EEE4F0E080818D7FE5
:102200008C93AEE4B0E0EEE4F0E0808181608C93EA
:1022100057C0AEE4B0E0EEE4F0E080818B7F8C93B9
:10222000AEE4B0E0EEE4F0E0808182608C93AEE456
:10223000B0E0EEE4F0E080818E7F8C9341C0AEE4AC
:10224000B0E0EEE4F0E080818B7F8C93AEE4B0E010
:10225000EEE4F0E0808182608C93AEE4B0E0EEE4E6
:10226000F0E0808181608C932BC0AEE4B0E0EEE4BE
:10227000F0E0808184608C93AEE4B0E0EEE4F0E0C6
:1022800080818D7F8C93AEE4B0E0EEE4F0E080815D
:102290008E7F8C9315C0AEE4B0E0EEE4F0E0808178
:1022A00084608C93AEE4B0E0EEE4F0E080818D7F5A
:1022B0008C93AEE4B0E0EEE4F0E0808181608C933A
:1022C0000F900F900F90CF91DF9108951F920F9272
:1022D0000FB60F9211242F933F934F935F936F93F9
:1022E0007F938F939F93AF93BF93EF93FF93DF936E
:1022F000CF93CDB7DEB78091F5019091F6010097AD
:1023000029F0E091F501F091F6010995CF91DF9167
:10231000FF91EF91BF91AF919F918F917F916F91BD
:102320005F914F913F912F910F900FBE0F901F9093
:1023300018951F920F920FB60F9211242F933F936F
:102340004F935F936F937F938F939F93AF93BF93BD
:10235000EF93FF93DF93CF93CDB7DEB78091F70173
:102360009091F801009729F0E091F701F091F801C0
:102370000995CF91DF91FF91EF91BF91AF919F911F
:102380008F917F916F915F914F913F912F910F901E
:102390000FBE0F901F901895DF93CF93CDB7DEB788
:1023A000E0E2F0E082E08083A6E5B0E0E6E5F0E080
:1023B000808184608C93A1E2B0E0E1E2F0E0808172
:1023C0008D7F8C93A1E2B0E0E1E2F0E080818E7F2E
:1023D0008C93E2E2F0E082E08083CF91DF91089578
:1023E000DF93CF93CDB7DEB7A6E5B0E0E6E5F0E04A
:1023F000808180628C93A6E5B0E0E6E5F0E0808124
:1024000080688C93A6E5B0E0E6E5F0E0808184602A
:102410008C93E6E5F0E080818823DCF7CF91DF91B3
:102420000895DF93CF93CDB7DEB7A6E5B0E0E6E53C
:10243000F0E0808180618C93A6E5B0E0E6E5F0E015
:10244000808180688C93A6E5B0E0E6E5F0E08081CD
:1024500084608C93CF91DF910895DF93CF930F9297
:10246000CDB7DEB78983E3E2F0E089818083A6E51A
:10247000B0E0E6E5F0E0808180688C93A6E5B0E00E
:10248000E6E5F0E0808184608C93E6E5F0E0808111
:102490008823DCF70F90CF91DF910895DF93CF93DE
:1024A000CDB7DEB7A6E5B0E0E6E5F0E08081806478
:1024B0008C93A6E5B0E0E6E5F0E0808180688C933F
:1024C000A6E5B0E0E6E5F0E0808184608C93E6E587
:1024D000F0E080818823DCF7E3E2F0E08081CF91B7
:1024E000DF910895DF93CF93CDB7DEB7A6E5B0E0D7
:1024F000E6E5F0E0808180688C93A6E5B0E0E6E553
:10250000F0E0808184608C93E6E5F0E080818823B0
:10251000DCF7E3E2F0E08081CF91DF910895DF9373
:10252000CF930F92CDB7DEB7E1E2F0E08081887FF4
:10253000898389810F90CF91DF910895DF93CF93A5
:1025400000D00F92CDB7DEB7898381E064E041E02F
:102550000E94841681E065E041E00E94841681E0DB
:1025600066E040E00E94841681E067E041E00E945E
:102570008416ADE2B0E0EDE2F0E0808180648C93FF
:10258000ADE2B0E0EDE2F0E0808180618C93ADE2FD
:10259000B0E0EDE2F0E080818F7D8C93ADE2B0E0C1
:1025A000EDE2F0E08081877F8C93ADE2B0E0EDE278
:1025B000F0E080818B7F8C938981282F30E03B83F2
:1025C0002A838A819B818330910569F12A813B812D
:1025D0002430310534F48A819B818130910569F082
:1025E00063C02A813B812530310599F18A819B8125
:1025F0008630910509F443C057C0ADE2B0E0EDE28A
:10260000F0E080818E7F8C93ADE2B0E0EDE2F0E00F
:1026100080818D7F8C93AEE2B0E0EEE2F0E08081CD
:102620008E7F8C9341C0ADE2B0E0EDE2F0E08081BE
:1026300081608C93ADE2B0E0EDE2F0E080818D7FCF
:102640008C93AEE2B0E0EEE2F0E080818E7F8C937E
:102650002BC0ADE2B0E0EDE2F0E080818E7F8C93A4
:10266000ADE2B0E0EDE2F0E0808182608C93AEE21A
:10267000B0E0EEE2F0E080818E7F8C9315C0ADE299
:10268000B0E0EDE2F0E0808181608C93ADE2B0E0FB
:10269000EDE2F0E0808182608C93AEE2B0E0EEE2A9
:1026A000F0E080818E7F8C930F900F900F90CF91F0
:1026B000DF910895DF93CF93CDB7DEB781E064E07B
:1026C00040E00E94841681E065E040E00E948416AC
:1026D00081E066E041E00E94841681E067E040E02E
:1026E0000E948416EDE2F0E080E48083CF91DF91D8
:1026F0000895DF93CF930F92CDB7DEB78983EFE2D2
:10270000F0E089818083EEE2F0E080818823DCF7CD
:10271000EFE2F0E080810F90CF91DF910895DF9399
:10272000CF9300D00F92CDB7DEB79B838A831982F7
:102730000EC08981282F30E08A819B81FC01E20F45
:10274000F31F80810E94791389818F5F898389813A
:10275000282F30E08A819B81FC01E20FF31F8081EA
:10276000882319F08981833320F383E20E9479134F
:102770000F900F900F90CF91DF9108950F931F93BB
:10278000DF93CF9300D00F92CDB7DEB79B838A83C0
:1027900019828981282F30E08A819B818C01020F68
:1027A000131F8FEF0E947913F801808310C0898175
:1027B0008F5F89838981282F30E08A819B818C01FA
:1027C000020F131F8FEF0E947913F8018083898114
:1027D000282F30E08A819B81FC01E20FF31F80816A
:1027E000833229F78981282F30E08A819B81FC017F
:1027F000E20FF31F10820F900F900F90CF91DF9197
:102800001F910F910895DF93CF9300D00F92CDB712
:10281000DEB789838981282F30E03B832A838A8130
:102820009B81009769F02A813B812130310579F441
:10283000AFE5B0E0EFE5F0E0808180688C9307C001
:10284000AFE5B0E0EFE5F0E080818F778C930F90FB
:102850000F900F90CF91DF910895DF93CF9300D029
:1028600000D000D0CDB7DEB789836A838981282F55
:1028700030E03E832D838D819E81009769F02D810C
:102880003E812130310579F4ABE5B0E0EBE5F0E0D5
:10289000808180648C9307C0ABE5B0E0EBE5F0E0AD
:1028A00080818F7B8C938A81282F30E03C832B831F
:1028B0008B819C818130910521F12B813C812230DB
:1028C00031052CF48B819C81009761F046C02B81EF
:1028D0003C812230310521F18B819C81833091052F
:1028E00071F13BC0A5E5B0E0E5E5F0E080818D7FCA
:1028F0008C93A5E5B0E0E5E5F0E080818E7F8C93D8
:102900002CC0A5E5B0E0E5E5F0E080818D7F8C93FB
:10291000A5E5B0E0E5E5F0E0808181608C931DC025
:10292000A5E5B0E0E5E5F0E0808182608C93A5E567
:10293000B0E0E5E5F0E080818E7F8C930EC0A5E5E8
:10294000B0E0E5E5F0E0808182608C93A5E5B0E041
:10295000E5E5F0E0808181608C9326960FB6F894CF
:10296000DEBF0FBECDBFCF91DF910895DF93CF9330
:1029700000D0CDB7DEB79A83898389819A81009789
:1029800031F089819A819093FA018093F9010F9037
:102990000F90CF91DF9108951F920F920FB60F9273
:1029A00011242F933F934F935F936F937F938F9354
:1029B0009F93AF93BF93EF93FF93DF93CF93CDB7E5
:1029C000DEB78091F9019091FA01009729F0E0912A
:1029D000F901F091FA010995CF91DF91FF91EF9103
:1029E000BF91AF919F918F917F916F915F914F9127
:1029F0003F912F910F900FBE0F901F901895DF936E
:102A0000CF9300D000D000D0CDB7DEB789836A83E2
:102A10008981282F30E03E832D838D819E81009710
:102A200069F02D813E812130310579F4ABE5B0E0CC
:102A3000EBE5F0E0808180688C9307C0ABE5B0E007
:102A4000EBE5F0E080818F778C938A81282F30E04E
:102A50003C832B838B819C818130910521F12B81DB
:102A60003C81223031052CF48B819C81009761F0F0
:102A700046C02B813C812230310521F18B819C8124
:102A80008330910571F13BC0A5E5B0E0E5E5F0E0EC
:102A90008081877F8C93A5E5B0E0E5E5F0E080815B
:102AA0008B7F8C932CC0A5E5B0E0E5E5F0E080815C
:102AB000877F8C93A5E5B0E0E5E5F0E08081846058
:102AC0008C931DC0A5E5B0E0E5E5F0E0808188606D
:102AD0008C93A5E5B0E0E5E5F0E080818B7F8C93F9
:102AE0000EC0A5E5B0E0E5E5F0E0808188608C935C
:102AF000A5E5B0E0E5E5F0E0808184608C93269662
:102B00000FB6F894DEBF0FBECDBFCF91DF91089511
:102B1000DF93CF9300D0CDB7DEB79A8389838981C5
:102B20009A81009731F089819A819093FC0180937A
:102B3000FB010F900F90CF91DF9108951F920F929C
:102B40000FB60F9211242F933F934F935F936F9380
:102B50007F938F939F93AF93BF93EF93FF93DF93F5
:102B6000CF93CDB7DEB78091FB019091FC01009728
:102B700029F0E091FB01F091FC010995CF91DF91E3
:102B8000FF91EF91BF91AF919F918F917F916F9145
:102B90005F914F913F912F910F900FBE0F901F901B
:102BA0001895DF93CF9300D000D000D0CDB7DEB71B
:102BB00089836A838981282F30E03E832D838D812C
:102BC0009E81009769F02D813E812130310579F495
:102BD000ABE5B0E0EBE5F0E0808180628C9307C06C
:102BE000ABE5B0E0EBE5F0E080818F7D8C938A81EE
:102BF000282F30E03C832B838B819C818230910590
:102C000031F02B813C812330310549F00FC0A4E520
:102C1000B0E0E4E5F0E080818F7B8C9307C0A4E511
:102C2000B0E0E4E5F0E0808180648C9326960FB6F6
:102C3000F894DEBF0FBECDBFCF91DF910895DF9333
:102C4000CF9300D0CDB7DEB79A83898389819A81EB
:102C5000009731F089819A819093FE018093FD0164
:102C60000F900F90CF91DF9108951F920F920FB6A2
:102C70000F9211242F933F934F935F936F937F9302
:102C80008F939F93AF93BF93EF93FF93DF93CF9374
:102C9000CDB7DEB78091FD019091FE01009729F03C
:102CA000E091FD01F091FE010995CF91DF91FF9137
:102CB000EF91BF91AF919F918F917F916F915F91B4
:102CC0004F913F912F910F900FBE0F901F9018952D
:102CD000DF93CF9300D0CDB7DEB789836A83898134
:102CE000843068F48981882F90E0880F991FFC0157
:102CF000EE52FE4F0190F081E02D8A8180830F908B
:102D00000F90CF91DF910895DF93CF9300D00F9272
:102D1000CDB7DEB789836A834B838981843008F01D
:102D200051C08A81883008F04DC08B81882329F1F9
:102D30008981882F90E0880F991FFC01EE52FE4F89
:102D4000A081B1818981882F90E0880F991FFC01B3
:102D5000EE52FE4F0190F081E02D8081482F8A8154
:102D6000282F30E081E090E0022E02C0880F991FEA
:102D70000A94E2F7842B8C9325C08981882F90E0F8
:102D8000880F991FFC01EE52FE4FA081B18189810D
:102D9000882F90E0880F991FFC01EE52FE4F0190A2
:102DA000F081E02D8081482F8A81282F30E081E05A
:102DB00090E0022E02C0880F991F0A94E2F78095D6
:102DC00084238C930F900F900F90CF91DF910895F3
:102DD000DF93CF9300D0CDB7DEB789836A83898133
:102DE000843068F48981882F90E0880F991FFC0156
:102DF000E652FE4F0190F081E02D8A8180830F9092
:102E00000F90CF91DF910895DF93CF9300D00F9271
:102E1000CDB7DEB789836A834B838981843008F01C
:102E200051C08A81883008F04DC08B81882329F1F8
:102E30008981882F90E0880F991FFC01E652FE4F90
:102E4000A081B1818981882F90E0880F991FFC01B2
:102E5000E652FE4F0190F081E02D8081482F8A815B
:102E6000282F30E081E090E0022E02C0880F991FE9
:102E70000A94E2F7842B8C9325C08981882F90E0F7
:102E8000880F991FFC01E652FE4FA081B181898114
:102E9000882F90E0880F991FFC01E652FE4F0190A9
:102EA000F081E02D8081482F8A81282F30E081E059
:102EB00090E0022E02C0880F991F0A94E2F78095D5
:102EC00084238C930F900F900F90CF91DF910895F2
:102ED000DF93CF9300D00F92CDB7DEB789836A839B
:102EE0008981843018F48A81883010F01B8226C0D2
:102EF0008981882F90E0880F991FFC01EE51FE4FC9
:102F00000190F081E02D8081482F50E08A81282FA8
:102F100030E081E090E002C0880F991F2A95E2F727
:102F20009A01282339238A81882F90E0A90102C0C1
:102F3000559547958A95E2F7CA018B838B810F904F
:102F40000F900F90CF91DF910895DF93CF9300D032
:102F5000CDB7DEB789838981843010F01A820DC025
:102F60008981882F90E0880F991FFC01EE51FE4F58
:102F70000190F081E02D80818A838A810F900F90EB
:102F8000CF91DF910895DF93CF9300D000D00F92BF
:102F9000CDB7DEB78B836C834D838B81843028F56E
:102FA0008B81882F90E0880F991FFC01E652FE4F1D
:102FB0000190F081E02D80818A838D81982F9095FA
:102FC0008A81292F28239C818D818923822B8983C3
:102FD0008B81882F90E0880F991FFC01E652FE4FED
:102FE0000190F081E02D898180830F900F900F90E8
:102FF0000F900F90CF91DF910895DF93CF9300D082
:1030000000D00F92CDB7DEB78B836C834D838B815D
:10301000843028F58B81882F90E0880F991FFC0160
:10302000EE52FE4F0190F081E02D80818A838D81E8
:10303000982F90958A81292F28239C818D8189231F
:10304000822B89838B81882F90E0880F991FFC0148
:10305000EE52FE4F0190F081E02D898180830F9028
:103060000F900F900F900F90CF91DF910895DF9305
:10307000CF93CDB7DEB727970FB6F894DEBF0FBE5C
:10308000CDBF69837A838B839C834D8369817A81E9
:103090008B819C8120E030E040E050E00E94C5033D
:1030A000882379F4A7E2B0E0E7E2F0E080818F7B4B
:1030B0008C93A7E2B0E0E7E2F0E080818F778C9319
:1030C00035C069817A818B819C8120E030E040EAC3
:1030D00050E40E94C503882379F4A7E2B0E0E7E258
:1030E000F0E0808180648C93A7E2B0E0E7E2F0E05A
:1030F00080818F778C931AC069817A818B819C81C2
:103100002AE037ED43E250E40E94C503882371F4BE
:10311000A7E2B0E0E7E2F0E0808180648C93A7E270
:10312000B0E0E7E2F0E0808180688C93A6E2B0E056
:10313000E6E2F0E0808180688C938D81282F30E07A
:103140003F832E838E819F818031910509F46BC06E
:103150002E813F81213131058CF48E819F81843015
:103160009105A9F12E813F812830310509F445C030
:103170008E819F8182309105A1F0ADC02E813F816B
:103180002034310509F47BC08E819F818038910500
:1031900009F48BC02E813F812032310509F459C0DA
:1031A0009AC0A6E2B0E0E6E2F0E080818B7F8C93EB
:1031B000A6E2B0E0E6E2F0E080818D7F8C93A6E2AB
:1031C000B0E0E6E2F0E0808181608C9399C0A6E2F5
:1031D000B0E0E6E2F0E080818B7F8C93A6E2B0E085
:1031E000E6E2F0E0808182608C93A6E2B0E0E6E265
:1031F000F0E080818E7F8C9383C0A6E2B0E0E6E2AF
:10320000F0E080818B7F8C93A6E2B0E0E6E2F0E014
:10321000808182608C93A6E2B0E0E6E2F0E08081FB
:1032200081608C936DC0A6E2B0E0E6E2F0E08081C0
:1032300084608C93A6E2B0E0E6E2F0E080818D7FCE
:103240008C93A6E2B0E0E6E2F0E080818E7F8C9382
:1032500057C0A6E2B0E0E6E2F0E0808184608C93A3
:10326000A6E2B0E0E6E2F0E080818D7F8C93A6E2FA
:10327000B0E0E6E2F0E0808181608C9341C0A6E29C
:10328000B0E0E6E2F0E0808184608C93A6E2B0E0FA
:10329000E6E2F0E0808182608C93A6E2B0E0E6E2B4
:1032A000F0E080818E7F8C932BC0A6E2B0E0E6E256
:1032B000F0E0808184608C93A6E2B0E0E6E2F0E08A
:1032C000808182608C93A6E2B0E0E6E2F0E080814B
:1032D00081608C9315C0A6E2B0E0E6E2F0E0808168
:1032E00084608C93A6E2B0E0E6E2F0E08081826048
:1032F0008C93A6E2B0E0E6E2F0E0808181608C93FE
:10330000A7E2B0E0E7E2F0E080818F7D8C93A6E257
:10331000B0E0E6E2F0E08081877F8C9327960FB6DD
:10332000F894DEBF0FBECDBFCF91DF910895DF933C
:10333000CF930F92CDB7DEB78983A7E2B0E0E7E283
:10334000F0E08081982F907E89818770892B8C9303
:10335000A6E2B0E0E6E2F0E0808180648C93E6E2F1
:10336000F0E08081882F90E0807190700097B9F331
:10337000A6E2B0E0E6E2F0E0808180618C93E4E2D6
:10338000F0E0808191810F90CF91DF910895DF93DC
:10339000CF9300D0CDB7DEB79A838983E981FA81D4
:1033A0008081682F70E0E981FA818181482F50E0A7
:1033B000E981FA818181282F30E0CB01BA01A9018E
:1033C0000E94FD17E981FA818581882389F4E981CA
:1033D000FA818081482F50E0E981FA818181282F8C
:1033E00030E0CA0160E070E0A9010E94C31714C078
:1033F000E981FA818081682F70E0E981FA81818119
:10340000482F50E0E981FA818181282F30E0CB01FB
:10341000BA01A9010E94C3170F900F90CF91DF91BD
:103420000895DF93CF93CDB7DEB7C154D0400FB628
:10343000F894DEBF0FBECDBF9CAF8BAF6DAF5FAF5B
:103440004EAFEBADFCAD8481282F30E022963FAF2C
:103450002EAF229722968EAD9FAD22978430910594
:1034600049F022962EAD3FAD22972830310509F460
:10347000A6C149C38DAD882309F0CEC01AAEC2C023
:1034800019AEB9C0EBADFCAD85818823D1F4EBADAD
:10349000FCAD8081682F70E089AD992787FD9095FC
:1034A000FC01E055FE4F8081482F50E0EBADFCADB4
:1034B0008181282F30E0CB01BA01A9010E94C317F6
:1034C0001CC0EBADFCAD8081682F70E089AD992701
:1034D00087FD9095FC01E055FE4F8081882F90E09C
:1034E000AC0140955095EBADFCAD8181282F30E0CB
:1034F000CB01BA01A9010E94C317EBADFCAD8281DB
:103500009381CC01A0E0B0E0BC01CD010E94D904C0
:10351000DC01CB018DAB9EABAFABB8AF6DA97EA983
:103520008FA998AD20E030E04AEF54E40E941F02DA
:10353000DC01CB0189AB9AABABABBCAB69A97AA977
:103540008BA99CA920E030E040E85FE30E9455048D
:1035500088232CF481E090E098AB8FA73FC069A945
:103560007AA98BA99CA920E03FEF4FE757E40E947E
:10357000F50318164CF56DA97EA98FA998AD20E02A
:1035800030E040E251E40E941F02DC01CB01BC01AB
:10359000CD010E944900DC01CB0198AB8FA70FC081
:1035A00088EC90E09EA78DA78DA59EA50197F1F7C9
:1035B0009EA78DA78FA598A9019798AB8FA78FA5D8
:1035C00098A9009769F714C069A97AA98BA99CA941
:1035D0000E944900DC01CB0198AB8FA78FA598A969
:1035E0009CA78BA78BA59CA50197F1F79CA78BA700
:1035F00089AD8F5F89AF89AD84300CF443CF8AAD3C
:103600008F5F8AAF8AAD282F30E08EAD9FAD28172F
:10361000390708F435CF77C28DAD813009F073C218
:103620001AAEC3C083E089AFB9C0EBADFCAD8581F4
:103630008823D1F4EBADFCAD8081682F70E089ADBB
:10364000992787FD9095FC01E055FE4F8081482F1A
:1036500050E0EBADFCAD8181282F30E0CB01BA0109
:10366000A9010E94C3171CC0EBADFCAD8081682F7F
:1036700070E089AD992787FD9095FC01E055FE4FDC
:103680008081882F90E0AC0140955095EBADFCAD6A
:103690008181282F30E0CB01BA01A9010E94C31714
:1036A000EBADFCAD82819381CC01A0E0B0E0BC0128
:1036B000CD010E94D904DC01CB018FA398A7A9A753
:1036C000BAA76FA178A589A59AA520E030E04AEFB6
:1036D00054E40E941F02DC01CB018BA39CA3ADA389
:1036E000BEA36BA17CA18DA19EA120E030E040E8AB
:1036F0005FE30E94550488232CF481E090E09AA3B4
:1037000089A33FC06BA17CA18DA19EA120E03FEFCA
:103710004FE757E40E94F50318164CF56FA178A502
:1037200089A59AA520E030E040E251E40E941F0202
:10373000DC01CB01BC01CD010E944900DC01CB01C1
:103740009AA389A30FC088EC90E098A38F8F8F8DE8
:1037500098A10197F1F798A38F8F89A19AA101975A
:103760009AA389A389A19AA1009769F714C06BA1B4
:103770007CA18DA19EA10E944900DC01CB019AA3EE
:1037800089A389A19AA19E8F8D8F8D8D9E8D019782
:10379000F1F79E8F8D8F89AD815089AF89AD8823D8
:1037A0000CF043CF8AAD8F5F8AAF8AAD282F30E00F
:1037B0008EAD9FAD2817390708F434CFA4C18DAD65
:1037C000882309F0CEC01AAEC2C019AEB9C0EBADA5
:1037D000FCAD85818823D1F4EBADFCAD8081682FF1
:1037E00070E089AD992787FD9095FC01EC54FE4F60
:1037F0008081482F50E0EBADFCAD8181282F30E077
:10380000CB01BA01A9010E94C3171CC0EBADFCADEE
:103810008081682F70E089AD992787FD9095FC0124
:10382000EC54FE4F8081882F90E0AC01409550957C
:10383000EBADFCAD8181282F30E0CB01BA01A901AD
:103840000E94C317EBADFCAD82819381CC01A0E057
:10385000B0E0BC01CD010E94D904DC01CB01898F0D
:103860009A8FAB8FBC8F698D7A8D8B8D9C8D20E06C
:1038700030E04AEF54E40E941F02DC01CB018D8B43
:103880009E8BAF8BB88F6D897E898F89988D20E054
:1038900030E040E85FE30E94550488232CF481E087
:1038A00090E09C8B8B8B3FC06D897E898F89988D32
:1038B00020E03FEF4FE757E40E94F50318164CF560
:1038C000698D7A8D8B8D9C8D20E030E040E251E453
:1038D0000E941F02DC01CB01BC01CD010E94490006
:1038E000DC01CB019C8B8B8B0FC088EC90E09A8B1A
:1038F000898B89899A890197F1F79A8B898B8B89B2
:103900009C8901979C8B8B8B8B899C89009769F78D
:1039100014C06D897E898F89988D0E944900DC01D1
:10392000CB019C8B8B8B8B899C89988B8F878F8508
:1039300098890197F1F7988B8F8789AD8F5F89AF51
:1039400089AD88300CF443CF8AAD8F5F8AAF8AADE2
:10395000282F30E08EAD9FAD2817390708F435CFFA
:10396000D2C08DAD813009F0CEC01AAEC3C087E0A1
:1039700089AFB9C0EBADFCAD85818823D1F4EBAD47
:10398000FCAD8081682F70E089AD992787FD909507
:10399000FC01EC54FE4F8081482F50E0EBADFCADB4
:1039A0008181282F30E0CB01BA01A9010E94C31701
:1039B0001CC0EBADFCAD8081682F70E089AD99270C
:1039C00087FD9095FC01EC54FE4F8081882F90E09C
:1039D000AC0140955095EBADFCAD8181282F30E0D6
:1039E000CB01BA01A9010E94C317EBADFCAD8281E6
:1039F0009381CC01A0E0B0E0BC01CD010E94D904CC
:103A0000DC01CB018B879C87AD87BE876B857C856E
:103A10008D859E8520E030E04AEF54E40E941F022D
:103A2000DC01CB018F839887A987BA876F8178855E
:103A300089859A8520E030E040E85FE30E945504E4
:103A400088232CF481E090E09E838D833FC06F81BA
:103A5000788589859A8520E03FEF4FE757E40E94FB
:103A6000F50318164CF56B857C858D859E8520E0C9
:103A700030E040E251E40E941F02DC01CB01BC01B6
:103A8000CD010E944900DC01CB019E838D830FC0D4
:103A900088EC90E09C838B838B819C810197F1F76C
:103AA0009C838B838D819E8101979E838D838D81E5
:103AB0009E81009769F714C06F81788589859A8502
:103AC0000E944900DC01CB019E838D838D819E8104
:103AD0009A83898389819A810197F1F79A838983EF
:103AE00089AD815089AF89AD88230CF043CF8AAD71
:103AF0008F5F8AAF8AAD282F30E08EAD9FAD28173B
:103B0000390708F434CFCF5BDF4F0FB6F894DEBF30
:103B10000FBECDBFCF91DF910895DF93CF93CDB787
:103B2000DEB727970FB6F894DEBF0FBECDBF9C83DC
:103B30008B836D835F834E83EB81FC818481843032
:103B400041F58E819F81CC01A0E0B0E0BC01CD01A8
:103B50000E94D904DC01CB01BC01CD0120E030E0A2
:103B600044EB53E40E941903DC01CB01BC01CD01FD
:103B700020E030E048E453E40E941F02DC01CB0166
:103B8000BC01CD010E944900DC01CB019A838983ED
:103B90002CC0EB81FC818481883039F58E819F8136
:103BA000CC01A0E0B0E0BC01CD010E94D904DC0151
:103BB000CB01BC01CD0120E030E044EB53E40E9496
:103BC0001903DC01CB01BC01CD0120E030E048EC61
:103BD00053E40E941F02DC01CB01BC01CD010E9415
:103BE0004900DC01CB019A8389838B819C812981E7
:103BF0003A816D81A9010E94111A27960FB6F89497
:103C0000DEBF0FBECDBFCF91DF910895DF93CF937D
:103C100000D0CDB7DEB78A838A81853B10F084EB74
:103C20008A838A81282F30E0C901880F991F820F6B
:103C3000931F880F991F880F991F820F931F24EBE2
:103C400030E0B9010E94AE2DCB01835F8983898169
:103C50000E944B0D0F900F90CF91DF910895DF934D
:103C6000CF93CDB7DEB781E064E00E94DF0C8AE538
:103C70000E94061ECF91DF910895DF93CF9300D06D
:103C800000D000D0CDB7DEB78E838E810E94971909
:103C9000CC01A0E0B0E08A839B83AC83BD836A81C2
:103CA0007B818C819D810E94D904DC01CB01BC0108
:103CB000CD0120E030E046E153E40E941F02DC0128
:103CC000CB01BC01CD0120E030E040EA50E40E948D
:103CD0001F02DC01CB01BC01CD0120E030ED4FEB38
:103CE00054E40E941903DC01CB01BC01CD010E9408
:103CF0004900DC01CB018983898126960FB6F894AF
:103D0000DEBF0FBECDBFCF91DF910895DF93CF937C
:103D1000CDB7DEB727970FB6F894DEBF0FBECDBF85
:103D20008F838F810E949719CC01A0E0B0E08B8334
:103D30009C83AD83BE836B817C818D819E810E943B
:103D4000D904DC01CB01BC01CD0120E030E048EC1E
:103D500052E40E941F02DC01CB01BC01CD012AE02C
:103D600037ED43E250E40E941F02DC01CB01BC01AD
:103D7000CD0124E13EEA43E255E40E941903DC014F
:103D8000CB01BC01CD010E944900DC01CB019A832B
:103D9000898389819A8127960FB6F894DEBF0FBE7A
:103DA000CDBFCF91DF910895DF93CF93CDB7DEB72D
:103DB0002E970FB6F894DEBF0FBECDBF83E064E050
:103DC00041E00E94841683E065E041E00E94841691
:103DD00080E090E0A0EAB1E48B879C87AD87BE8746
:103DE0006B857C858D859E8520E030E04AEF54E42C
:103DF0000E941F02DC01CB018F839887A987BA87B5
:103E00006F81788589859A8520E030E040E85FE31E
:103E10000E94550488232CF481E090E09E838D83DA
:103E20003FC06F81788589859A8520E03FEF4FE715
:103E300057E40E94F50318164CF56B857C858D853B
:103E40009E8520E030E040E251E40E941F02DC0148
:103E5000CB01BC01CD010E944900DC01CB019E8356
:103E60008D830FC088EC90E09C838B838B819C8139
:103E70000197F1F79C838B838D819E8101979E83AF
:103E80008D838D819E81009769F714C06F8178853D
:103E900089859A850E944900DC01CB019E838D8330
:103EA0008D819E819A83898389819A810197F1F717
:103EB0009A83898382E064E041E00E94841682E074
:103EC00065E041E00E94841682E066E041E00E94E5
:103ED000841682E067E041E00E94841683E30E943A
:103EE000861F82E30E94861F88E20E94861F8CE064
:103EF0000E94861F81E00E94861F2E960FB6F894BE
:103F0000DEBF0FBECDBFCF91DF9108950F931F93FA
:103F1000DF93CF93CDB7DEB7C356D0400FB6F8943A
:103F2000DEBF0FBECDBFFE01ED59FF4F808383E0A2
:103F300064E040E00E940417FE01E15AFF4F80E078
:103F400090E0A0E8BFE380839183A283B3838E01D6
:103F5000055A1F4FFE01E15AFF4F60817181828136
:103F6000938120E030E04AEF54E40E941F02DC011C
:103F7000CB01F80180839183A283B383FE01E55ACC
:103F8000FF4F608171818281938120E030E040E8C1
:103F90005FE30E945504882344F4FE01E75AFF4F73
:103FA00081E090E09183808364C0FE01E55AFF4F79
:103FB000608171818281938120E03FEF4FE757E478
:103FC0000E94F50318160CF043C0FE01E15AFF4FA2
:103FD000608171818281938120E030E040E251E490
:103FE0000E941F02DC01CB018E01075A1F4FBC014A
:103FF000CD010E944900DC01CB01F801918380834F
:104000001FC0FE01E95AFF4F88EC90E09183808346
:10401000FE01E95AFF4F808191810197F1F7FE017E
:10402000E95AFF4F91838083DE01A75ABF4FFE01FB
:10403000E75AFF4F80819181019711969C938E934F
:10404000FE01E75AFF4F808191810097D1F627C08A
:104050008E01075A1F4FFE01E55AFF4F60817181A3
:10406000828193810E944900DC01CB01F801918398
:104070008083DE01AB5ABF4FFE01E75AFF4F8081BC
:1040800091818D939C93FE01EB5AFF4F808191812A
:104090000197F1F7FE01EB5AFF4F9183808383E094
:1040A00065E041E00E940417FE01EF5AFF4F80E0F7
:1040B00090E0A0E8BFE380839183A283B3838E0165
:1040C000035B1F4FFE01EF5AFF4F608171818281B8
:1040D000938120E030E04AEF54E40E941F02DC01AB
:1040E000CB01F80180839183A283B383FE01E35B5C
:1040F000FF4F608171818281938120E030E040E850
:104100005FE30E945504882344F4FE01E55BFF4F02
:1041100081E090E09183808364C0FE01E35BFF4F08
:10412000608171818281938120E03FEF4FE757E406
:104130000E94F50318160CF043C0FE01EF5AFF4F22
:10414000608171818281938120E030E040E251E41E
:104150000E941F02DC01CB018E01055B1F4FBC01D9
:10416000CD010E944900DC01CB01F80191838083DD
:104170001FC0FE01E75BFF4F88EC90E091838083D6
:10418000FE01E75BFF4F808191810197F1F7FE010E
:10419000E75BFF4F91838083DE01A55BBF4FFE018C
:1041A000E55BFF4F80819181019711969C938E93DF
:1041B000FE01E55BFF4F808191810097D1F627C01A
:1041C0008E01055B1F4FFE01E35BFF4F6081718134
:1041D000828193810E944900DC01CB01F801918327
:1041E0008083DE01A95BBF4FFE01E55BFF4F80814D
:1041F00091818D939C93FE01E95BFF4F80819181BA
:104200000197F1F7FE01E95BFF4F91838083FE0187
:10421000ED59FF4F8081882F90E0807190709595C7
:104220008795959587959595879595958795982FD9
:1042300082E064E0492F0E940417FE01ED59FF4F10
:104240008081882F90E080729070959587959595E4
:104250008795959587959595879595958795982FA9
:1042600082E065E0492F0E940417FE01ED59FF4FDF
:104270008081882F90E080749070082E892F000C28
:10428000881F990B000C881F991F982F82E066E009
:10429000492F0E940417FE01ED59FF4F8081982F8E
:1042A000991F9927991F82E067E0492F0E94041700
:1042B000FE01ED5BFF4F80E090E0A0E8BFE380836C
:1042C0009183A283B3838E01015C1F4FFE01ED5BDE
:1042D000FF4F608171818281938120E030E04AEF5D
:1042E00054E40E941F02DC01CB01F801808391831A
:1042F000A283B383FE01FF966081718182819381E5
:1043000020E030E040E85FE30E94550488232CF46D
:1043100081E090E09EAF8DAF46C0FE01FF966081C8
:1043200071818281938120E03FEF4FE757E40E9443
:10433000F503181664F5FE01ED5BFF4F6081718196
:104340008281938120E030E040E251E40E941F022C
:10435000DC01CB01BC01CD010E944900DC01CB0195
:104360009EAF8DAF0FC088EC90E09CAF8BAF8BAD54
:104370009CAD0197F1F79CAF8BAF8DAD9EAD0197D2
:104380009EAF8DAF8DAD9EAD009769F716C0FE0153
:10439000FF9660817181828193810E944900DC01D6
:1043A000CB019EAF8DAF8DAD9EAD9AAF89AF89AD7C
:1043B0009AAD0197F1F79AAF89AF83E065E040E0ED
:1043C0000E94041780E090E0A0E8BFE38DAB9EABB5
:1043D000AFABB8AF6DA97EA98FA998AD20E030E052
:1043E0004AEF54E40E941F02DC01CB0189AB9AAB77
:1043F000ABABBCAB69A97AA98BA99CA920E030E042
:1044000040E85FE30E94550488232CF481E090E0AB
:1044100098AB8FA73FC069A97AA98BA99CA920E076
:104420003FEF4FE757E40E94F50318164CF56DA9CE
:104430007EA98FA998AD20E030E040E251E40E94CF
:104440001F02DC01CB01BC01CD010E944900DC014F
:10445000CB0198AB8FA70FC088EC90E09EA78DA7EB
:104460008DA59EA50197F1F79EA78DA78FA598A969
:10447000019798AB8FA78FA598A9009769F714C0EB
:1044800069A97AA98BA99CA90E944900DC01CB01EA
:1044900098AB8FA78FA598A99CA78BA78BA59CA548
:1044A0000197F1F79CA78BA783E065E041E00E94AC
:1044B000041780E090E0A0E8BFE38FA398A7A9A726
:1044C000BAA76FA178A589A59AA520E030E04AEFA8
:1044D00054E40E941F02DC01CB018BA39CA3ADA37B
:1044E000BEA36BA17CA18DA19EA120E030E040E89D
:1044F0005FE30E94550488232CF481E090E09AA3A6
:1045000089A33FC06BA17CA18DA19EA120E03FEFBC
:104510004FE757E40E94F50318164CF56FA178A5F4
:1045200089A59AA520E030E040E251E40E941F02F4
:10453000DC01CB01BC01CD010E944900DC01CB01B3
:104540009AA389A30FC088EC90E098A38F8F8F8DDA
:1045500098A10197F1F798A38F8F89A19AA101974C
:104560009AA389A389A19AA1009769F714C06BA1A6
:104570007CA18DA19EA10E944900DC01CB019AA3E0
:1045800089A389A19AA19E8F8D8F8D8D9E8D019774
:10459000F1F79E8F8D8FFE01ED59FF4F8081982F8F
:1045A000917082E064E0492F0E940417FE01ED59EA
:1045B000FF4F8081882F90E082709070959587954D
:1045C000982F82E065E0492F0E940417FE01ED5903
:1045D000FF4F8081882F90E084709070959587952B
:1045E00095958795982F82E066E0492F0E940417E1
:1045F000FE01ED59FF4F8081882F90E08870907008
:10460000959587959595879595958795982F82E0AF
:1046100067E0492F0E94041780E090E0A0E8BFE324
:10462000898F9A8FAB8FBC8F698D7A8D8B8D9C8D86
:1046300020E030E04AEF54E40E941F02DC01CB018D
:104640008D8B9E8BAF8BB88F6D897E898F89988D6E
:1046500020E030E040E85FE30E94550488232CF41A
:1046600081E090E09C8B8B8B3FC06D897E898F8928
:10467000988D20E03FEF4FE757E40E94F5031816AE
:104680004CF5698D7A8D8B8D9C8D20E030E040E279
:1046900051E40E941F02DC01CB01BC01CD010E944C
:1046A0004900DC01CB019C8B8B8B0FC088EC90E028
:1046B0009A8B898B89899A890197F1F79A8B898BD3
:1046C0008B899C8901979C8B8B8B8B899C8900970C
:1046D00069F714C06D897E898F89988D0E94490081
:1046E000DC01CB019C8B8B8B8B899C89988B8F8772
:1046F0008F8598890197F1F7988B8F8783E065E024
:1047000040E00E94041780E090E0A0E8BFE38B87C0
:104710009C87AD87BE876B857C858D859E8520E0D7
:1047200030E04AEF54E40E941F02DC01CB018F838A
:104730009887A987BA876F81788589859A8520E0CF
:1047400030E040E85FE30E94550488232CF481E0C8
:1047500090E09E838D833FC06F81788589859A859F
:1047600020E03FEF4FE757E40E94F50318164CF5A1
:104770006B857C858D859E8520E030E040E251E4AC
:104780000E941F02DC01CB01BC01CD010E94490047
:10479000DC01CB019E838D830FC088EC90E09C836D
:1047A0008B838B819C810197F1F79C838B838D8117
:1047B0009E8101979E838D838D819E81009769F7ED
:1047C00014C06F81788589859A850E944900DC0133
:1047D000CB019E838D838D819E819A83898389817C
:1047E0009A810197F1F79A838983CD59DF4F0FB6EC
:1047F000F894DEBF0FBECDBFCF91DF911F910F9117
:1048000008950F931F93DF93CF93CDB7DEB7C754AF
:10481000D0400FB6F894DEBF0FBECDBFFE01E95BFE
:10482000FF4F808383E064E041E00E940417FE01B3
:10483000ED5BFF4F80E090E0A0E8BFE380839183D1
:10484000A283B3838E01015C1F4FFE01ED5BFF4F1E
:10485000608171818281938120E030E04AEF54E4ED
:104860000E941F02DC01CB01F80180839183A283A7
:10487000B383FE01FF96608171818281938120E084
:1048800030E040E85FE30E94550488232CF481E087
:1048900090E09EAF8DAF46C0FE01FF9660817181B2
:1048A0008281938120E03FEF4FE757E40E94F503B8
:1048B000181664F5FE01ED5BFF4F60817181828106
:1048C000938120E030E040E251E40E941F02DC01CD
:1048D000CB01BC01CD010E944900DC01CB019EAFA0
:1048E0008DAF0FC088EC90E09CAF8BAF8BAD9CADD3
:1048F0000197F1F79CAF8BAF8DAD9EAD01979EAF49
:104900008DAF8DAD9EAD009769F716C0FE01FF9685
:1049100060817181828193810E944900DC01CB0119
:104920009EAF8DAF8DAD9EAD9AAF89AF89AD9AAD7B
:104930000197F1F79AAF89AF83E065E041E00E940B
:10494000041780E090E0A0E8BFE38DAB9EABAFAB77
:10495000B8AF6DA97EA98FA998AD20E030E04AEFED
:1049600054E40E941F02DC01CB0189AB9AABABABD4
:10497000BCAB69A97AA98BA99CA920E030E040E8EA
:104980005FE30E94550488232CF481E090E098AB0B
:104990008FA73FC069A97AA98BA99CA920E03FEF06
:1049A0004FE757E40E94F50318164CF56DA97EA950
:1049B0008FA998AD20E030E040E251E40E941F0250
:1049C000DC01CB01BC01CD010E944900DC01CB011F
:1049D00098AB8FA70FC088EC90E09EA78DA78DA500
:1049E0009EA50197F1F79EA78DA78FA598A901977E
:1049F00098AB8FA78FA598A9009769F714C069A9EC
:104A00007AA98BA99CA90E944900DC01CB0198AB33
:104A10008FA78FA598A99CA78BA78BA59CA501976D
:104A2000F1F79CA78BA7FE01E95BFF4F8081882FE0
:104A300090E080719070959587959595879595955F
:104A4000879595958795982F82E064E0492F0E947D
:104A50000417FE01E95BFF4F8081882F90E0807290
:104A6000907095958795959587959595879595954A
:104A7000879595958795982F82E065E0492F0E944C
:104A80000417FE01E95BFF4F8081882F90E080745E
:104A90009070082E892F000C881F990B000C881F1E
:104AA000991F982F82E066E0492F0E940417FE01AB
:104AB000E95BFF4F8081982F991F9927991F82E00A
:104AC00067E0492F0E94041783E065E040E00E9400
:104AD000041780E090E0A0E8BFE38FA398A7A9A700
:104AE000BAA76FA178A589A59AA520E030E04AEF82
:104AF00054E40E941F02DC01CB018BA39CA3ADA355
:104B0000BEA36BA17CA18DA19EA120E030E040E876
:104B10005FE30E94550488232CF481E090E09AA37F
:104B200089A33FC06BA17CA18DA19EA120E03FEF96
:104B30004FE757E40E94F50318164CF56FA178A5CE
:104B400089A59AA520E030E040E251E40E941F02CE
:104B5000DC01CB01BC01CD010E944900DC01CB018D
:104B60009AA389A30FC088EC90E098A38F8F8F8DB4
:104B700098A10197F1F798A38F8F89A19AA1019726
:104B80009AA389A389A19AA1009769F714C06BA180
:104B90007CA18DA19EA10E944900DC01CB019AA3BA
:104BA00089A389A19AA19E8F8D8F8D8D9E8D01974E
:104BB000F1F79E8F8D8F83E065E041E00E9404173E
:104BC00080E090E0A0E8BFE3898F9A8FAB8FBC8F25
:104BD000698D7A8D8B8D9C8D20E030E04AEF54E416
:104BE0000E941F02DC01CB018D8B9E8BAF8BB88F97
:104BF0006D897E898F89988D20E030E040E85FE301
:104C00000E94550488232CF481E090E09C8B8B8BD0
:104C10003FC06D897E898F89988D20E03FEF4FE7F7
:104C200057E40E94F50318164CF5698D7A8D8B8D2B
:104C30009C8D20E030E040E251E40E941F02DC0144
:104C4000CB01BC01CD010E944900DC01CB019C8B52
:104C50008B8B0FC088EC90E09A8B898B89899A891D
:104C60000197F1F79A8B898B8B899C8901979C8B93
:104C70008B8B8B899C89009769F714C06D897E891D
:104C80008F89988D0E944900DC01CB019C8B8B8B16
:104C90008B899C89988B8F878F8598890197F1F7ED
:104CA000988B8F87FE01E95BFF4F8081982F917071
:104CB00082E064E0492F0E940417FE01E95BFF4F88
:104CC0008081882F90E08270907095958795982FBD
:104CD00082E065E0492F0E940417FE01E95BFF4F67
:104CE0008081882F90E08470907095958795959538
:104CF0008795982F82E066E0492F0E940417FE01F5
:104D0000E95BFF4F8081882F90E0887090709595C7
:104D100087959595879595958795982F82E067E07B
:104D2000492F0E94041783E065E040E00E940417C9
:104D300080E090E0A0E8BFE38B879C87AD87BE87CB
:104D40006B857C858D859E8520E030E04AEF54E4BC
:104D50000E941F02DC01CB018F839887A987BA8745
:104D60006F81788589859A8520E030E040E85FE3AF
:104D70000E94550488232CF481E090E09E838D836B
:104D80003FC06F81788589859A8520E03FEF4FE7A6
:104D900057E40E94F50318164CF56B857C858D85CC
:104DA0009E8520E030E040E251E40E941F02DC01D9
:104DB000CB01BC01CD010E944900DC01CB019E83E7
:104DC0008D830FC088EC90E09C838B838B819C81CA
:104DD0000197F1F79C838B838D819E8101979E8340
:104DE0008D838D819E81009769F714C06F817885CE
:104DF00089859A850E944900DC01CB019E838D83C1
:104E00008D819E819A83898389819A810197F1F7A7
:104E10009A838983C95BDF4F0FB6F894DEBF0FBE5C
:104E2000CDBFCF91DF911F910F910895DF93CF9365
:104E300000D000D00F92CDB7DEB78A836B838A8112
:104E4000282F30E03D832C838C819D81009731F0A9
:104E50002C813D812130310521F006C08B81898371
:104E600003C08B81805C8983898180680E94861F52
:104E70000F900F900F900F900F90CF91DF910895AA
:104E8000DF93CF9300D00F92CDB7DEB79B838A8399
:104E900019820EC08981282F30E08A819B81FC0114
:104EA000E20FF31F80810E94012489818F5F898333
:104EB0008981282F30E08A819B81FC01E20FF31F5A
:104EC0008081882339F70F900F900F90CF91DF9159
:104ED0000895DF93CF9300D000D0CDB7DEB789839C
:104EE0006A835C834B8389816A810E9416278B8148
:104EF0009C810E9440270F900F900F900F90CF91B0
:104F0000DF910895DF93CF93CDB7DEB762970FB6E9
:104F1000F894DEBF0FBECDBF9A8B898B89899A89A1
:104F20009E012F5F3F4FB9014AE050E00E941B2EC7
:104F3000CE0101960E94402762960FB6F894DEBF1C
:104F40000FBECDBFCF91DF910895DF93CF93CDB743
:104F5000DEB7A4970FB6F894DEBF0FBECDBF69A32E
:104F60007AA38BA39CA38DB79EB708970FB6F8942E
:104F70009EBF0FBE8DBFEDB7FEB73196CE01019635
:104F80009183808385EA90E09383828389A19AA1AB
:104F9000ABA1BCA184839583A683B7830E943C2EDA
:104FA0008DB79EB708960FB6F8949EBF0FBE8DBF03
:104FB000CE0101960E944027A4960FB6F894DEBF5A
:104FC0000FBECDBFCF91DF910895DF93CF93CDB7C3
:104FD000DEB72E970FB6F894DEBF0FBECDBF81E0CF
:104FE0000E94861F80E090E0A0E8BFE38B879C874B
:104FF000AD87BE876B857C858D859E8520E030E002
:105000004AEF54E40E941F02DC01CB018F83988792
:10501000A987BA876F81788589859A8520E030E0F5
:1050200040E85FE30E94550488232CF481E090E07F
:105030009E838D833FC06F81788589859A8520E026
:105040003FEF4FE757E40E94F50318164CF56B85C8
:105050007C858D859E8520E030E040E251E40E9411
:105060001F02DC01CB01BC01CD010E944900DC0123
:10507000CB019E838D830FC088EC90E09C838B8353
:105080008B819C810197F1F79C838B838D819E811D
:1050900001979E838D838D819E81009769F714C04F
:1050A0006F81788589859A850E944900DC01CB0152
:1050B0009E838D838D819E819A83898389819A8144
:1050C0000197F1F79A8389832E960FB6F894DEBF85
:1050D0000FBECDBFCF91DF910895DF93CF93CDB7B2
:1050E000DEB76E970FB6F894DEBF0FBECDBF81E07E
:1050F00060E040E00E94841681E061E040E00E94B0
:10510000841681E062E040E00E94841681E063E062
:1051100040E00E94841681E064E040E00E94841632
:1051200081E065E040E00E94841681E066E040E0B6
:105130000E94841681E067E040E00E94841681E0CE
:1051400064E041E00E94041781E065E041E00E94D4
:10515000041781E066E041E00E94041781E067E007
:1051600041E00E9404171E8EB4C081E06E8D41E0C4
:105170000E94841681E06E8D40E00E94041780E05A
:1051800090E0A0E0B0E4898F9A8FAB8FBC8F698DDF
:105190007A8D8B8D9C8D20E030E04AEF54E40E94A4
:1051A0001F02DC01CB018D8B9E8BAF8BB88F6D897D
:1051B0007E898F89988D20E030E040E85FE30E948F
:1051C000550488232CF481E090E09C8B8B8B3FC0AE
:1051D0006D897E898F89988D20E03FEF4FE757E4F6
:1051E0000E94F50318164CF5698D7A8D8B8D9C8D78
:1051F00020E030E040E251E40E941F02DC01CB01DC
:10520000BC01CD010E944900DC01CB019C8B8B8B42
:105210000FC088EC90E09A8B898B89899A890197D5
:10522000F1F79A8B898B8B899C8901979C8B8B8B4F
:105230008B899C89009769F714C06D897E898F8955
:10524000988D0E944900DC01CB019C8B8B8B8B8954
:105250009C89988B8F878F8598890197F1F7988B18
:105260008F871D8E2BC08D8D982F9C5F81E0692FBD
:105270000E9468178823F9F481E06E8D40E00E9457
:1052800084168E8D482F50E08D8D282F30E0CA0176
:10529000880F991F880F991F820F931FFC01E454F8
:1052A000FE4F80816E960FB6F894DEBF0FBECDBF65
:1052B000CF91DF9108958D8D8F5F8D8F8D8D84308F
:1052C00090F281E06E8D40E00E9484168E8D8F5F9B
:1052D0008E8F8E8D843008F448CF80E090E0A0E27D
:1052E000B1E48B879C87AD87BE876B857C858D8578
:1052F0009E8520E030E04AEF54E40E941F02DC016A
:10530000CB018F839887A987BA876F817885898534
:105310009A8520E030E040E85FE30E94550488234E
:105320002CF481E090E09E838D833FC06F8178856F
:1053300089859A8520E03FEF4FE757E40E94F50307
:1053400018164CF56B857C858D859E8520E030E0B8
:1053500040E251E40E941F02DC01CB01BC01CD01FF
:105360000E944900DC01CB019E838D830FC088EC35
:1053700090E09C838B838B819C810197F1F79C83C8
:105380008B838D819E8101979E838D838D819E81EC
:10539000009769F7E8CE6F81788589859A850E94A4
:1053A0004900DC01CB019E838D838D819E819A8390
:1053B000898389819A810197F1F79A838983D3CE72
:1053C000DF93CF9300D000D0CDB7DEB79A83898327
:1053D0006B830E94F0110E948F12883011F01C82A2
:1053E00028C089819A8180709770880F892F881FC3
:1053F000990B9195806A0E942D120E948F1288311C
:1054000011F01C8216C089810E942D120E948F12F9
:10541000883211F01C820DC08B810E942D120E94D7
:105420008F12883211F01C8204C00E94111281E098
:105430008C838C810F900F900F900F90CF91DF9104
:105440000895DF93CF9300D000D00F92CDB7DEB791
:105450009A8389837C836B830E94F0110E948F1250
:10546000883011F01D8244C089819A8180709770C4
:10547000880F892F881F990B9195806A0E942D12A1
:105480000E948F12883111F01D8232C089810E94E2
:105490002D120E948F12883211F01D8229C00E94A5
:1054A000F0110E948F12803111F01D8221C089817C
:1054B0009A8180709770880F892F881F990B91951A
:1054C000816A0E942D120E948F12803411F01D8279
:1054D0000FC00E947212EB81FC8180830E948F12A8
:1054E000883511F01D8204C00E94111281E08D8365
:1054F0008D810F900F900F900F900F90CF91DF91B3
:105500000895DF93CF93CDB7DEB7A1E3B0E0E1E339
:10551000F0E0808187608C93CF91DF910895DF93D5
:10552000CF93CDB7DEB780E060E041E00E94841603
:1055300080E060E041E00E940417A2E3B0E0E2E313
:10554000F0E0808181608C93A2E3B0E0E2E3F0E0E0
:1055500080818D7F8C93A2E3B0E0E2E3F0E0808174
:1055600084608C93CF91DF910895DF93CF93CDB773
:10557000DEB780E060E041E00E94841680E060E0F9
:1055800041E00E940417A2E3B0E0E2E3F0E0808192
:105590008E7F8C93A2E3B0E0E2E3F0E08081826052
:1055A0008C93A2E3B0E0E2E3F0E0808184608C932E
:1055B000CF91DF910895DF93CF93CDB7DEB780E031
:1055C00061E041E00E94841680E061E041E00E94D9
:1055D0000417A2E3B0E0E2E3F0E080818E7F8C93D9
:1055E000A2E3B0E0E2E3F0E080818D7F8C93A2E360
:1055F000B0E0E2E3F0E080818B7F8C93CF91DF918C
:105600000895DF93CF93CDB7DEB782E060E041E04D
:105610000E94841682E061E041E00E94841682E0EC
:1056200062E041E00E94841682E063E041E00E9473
:10563000841683E066E040E00E94841682E060E029
:1056400041E00E94041782E061E040E00E940417FC
:10565000CF91DF910895DF93CF9300D00F92CDB714
:10566000DEB789838981282F30E03B832A838A81B2
:105670009B8181309105F9F02A813B8122303105EF
:1056800079F08A819B81009709F582E062E040E031
:105690000E94041782E063E040E00E94041720C0EB
:1056A00082E062E040E00E94041782E063E041E0B3
:1056B0000E94041715C082E062E041E00E940417D6
:1056C00082E063E041E00E9404170AC082E062E0E9
:1056D00041E00E94041782E063E040E00E9404176A
:1056E0000F900F900F90CF91DF910895DF93CF939C
:1056F000CDB7DEB72C970FB6F894DEBF0FBECDBF87
:10570000EFE4F0E01082EEE4F0E01082ECE4F0E090
:1057100011821082EEE4F0E081E48083A8E5B0E03D
:10572000E8E5F0E0808180628C93E8E5F0E080813C
:10573000882F90E0807290700097B9F3E6E4F0E073
:10574000808191819C878B87A8E5B0E0E8E5F0E057
:10575000808180628C93E8E5F0E08081882F90E082
:10576000807290700097B9F3E6E4F0E08081918157
:105770009A878987A8E5B0E0E8E5F0E0808180625B
:105780008C9329853A858B859C858217930780F4B5
:1057900029853A858B859C85A901481B590BCA012F
:1057A000CC01A0E0B0E08D839E83AF83B88710C0AA
:1057B0008B859C859C012095309589859A85820FE3
:1057C000931FCC01A0E0B0E08D839E83AF83B887A8
:1057D00080E092E1AAE7B0E02D813E814F815885BB
:1057E000BC01CD010E94C22DDA01C90189839A83CF
:1057F000AB83BC8389819A81AB81BC81BC01CD0123
:105800002C960FB6F894DEBF0FBECDBFCF91DF91BF
:105810000895DF93CF9300D000D000D0CDB7DEB78E
:105820009A8389837C836B835E834D8380E00E94AF
:105830002B2B0E94762BDC01CB01E981FA8180833E
:105840009183A283B38381E00E942B2B0E94762B4D
:10585000DC01CB01EB81FC8180839183A283B38344
:1058600082E00E942B2B0E94762BDC01CB01ED8184
:10587000FE8180839183A283B38326960FB6F8942A
:10588000DEBF0FBECDBFCF91DF910895EF92FF92A3
:105890000F931F93DF93CF93CDB7DEB761970FB60A
:1058A000F894DEBF0FBECDBF6D837E838F83988754
:1058B00029873A874B875C87ED86FE860F87188B92
:1058C0002D813E814F81588589859A85AB85BC8520
:1058D000280F391F4A1F5B1F8D859E85AF85B889AC
:1058E000820F931FA41FB51F89839A83AB83BC8348
:1058F0002091FF013091000240910102509102027B
:1059000089819A81AB81BC81281739074A075B07D7
:1059100018F481E0898B01C0198A898961960FB6D4
:10592000F894DEBF0FBECDBFCF91DF911F910F91D5
:10593000FF90EF900895DF93CF93CDB7DEB72B970D
:105940000FB6F894DEBF0FBECDBF9E838D837887E0
:105950006F835A8749878D819E812F81388549853C
:105960005A85B9010E94092CED81FE812081318187
:1059700042815381EF81F88580819181A281B38139
:10598000280F391F4A1F5B1FE985FA8580819181A5
:10599000A281B381820F931FA41FB51F89839A83AD
:1059A000AB83BC832091FF01309100024091010242
:1059B0005091020289819A81AB81BC8128173907F5
:1059C0004A075B0718F083E08B8770C0ED81FE818A
:1059D0002081318142815381EF81F88580819181DD
:1059E000A281B38182179307A407B50798F4ED81CC
:1059F000FE812081318142815381E985FA85808150
:105A00009181A281B38182179307A407B50710F48F
:105A10001B864CC0EF81F885208131814281538102
:105A2000ED81FE8180819181A281B38182179307EC
:105A3000A407B507A0F4EF81F88520813181428168
:105A40005381E985FA8580819181A281B381821792
:105A50009307A407B50718F482E08B8727C0E98570
:105A6000FA852081318142815381ED81FE818081DF
:105A70009181A281B38182179307A407B507A0F48F
:105A8000E985FA852081318142815381EF81F88552
:105A900080819181A281B38182179307A407B50702
:105AA00018F481E08B8702C083E08B878B852B966F
:105AB0000FB6F894DEBF0FBECDBFCF91DF91089532
:105AC000DF93CF93CDB7DEB72C970FB6F894DEBF38
:105AD0000FBECDBF9E012B5F3F4FAE01475F5F4FB3
